{"abi":[{"type":"constructor","inputs":[{"name":"_entranceFees","type":"uint256","internalType":"uint256"},{"name":"_predectionFee","type":"uint256","internalType":"uint256"},{"name":"_scoreBoard","type":"address","internalType":"address"}],"stateMutability":"nonpayable"},{"type":"function","name":"approvePlayer","inputs":[{"name":"player","type":"address","internalType":"address"}],"outputs":[],"stateMutability":"nonpayable"},{"type":"function","name":"cancelRegistraion","inputs":[],"outputs":[],"stateMutability":"nonpayable"},{"type":"function","name":"entranceFees","inputs":[],"outputs":[{"name":"","type":"uint256","internalType":"uint256"}],"stateMutability":"view"},{"type":"function","name":"makePredection","inputs":[{"name":"matchNumber","type":"uint256","internalType":"uint256"},{"name":"predection","type":"uint8","internalType":"enum ScoreBoard.Result"}],"outputs":[],"stateMutability":"payable"},{"type":"function","name":"organizer","inputs":[],"outputs":[{"name":"","type":"address","internalType":"address"}],"stateMutability":"view"},{"type":"function","name":"playerStatus","inputs":[{"name":"player","type":"address","internalType":"address"}],"outputs":[{"name":"","type":"uint8","internalType":"enum predictor.Status"}],"stateMutability":"view"},{"type":"function","name":"players","inputs":[{"name":"","type":"uint256","internalType":"uint256"}],"outputs":[{"name":"","type":"address","internalType":"address"}],"stateMutability":"view"},{"type":"function","name":"predectionFee","inputs":[],"outputs":[{"name":"","type":"uint256","internalType":"uint256"}],"stateMutability":"view"},{"type":"function","name":"register","inputs":[],"outputs":[],"stateMutability":"payable"},{"type":"function","name":"scoreBoard","inputs":[],"outputs":[{"name":"","type":"address","internalType":"contract ScoreBoard"}],"stateMutability":"view"},{"type":"function","name":"withdraw","inputs":[],"outputs":[],"stateMutability":"nonpayable"},{"type":"function","name":"withdrawPredictionFees","inputs":[],"outputs":[],"stateMutability":"nonpayable"},{"type":"error","name":"Limit_exceed","inputs":[]},{"type":"error","name":"ThePredicter__NotEligibleForWithdraw","inputs":[]},{"type":"error","name":"TimeLine_over","inputs":[]},{"type":"error","name":"Unauthorized_organizer","inputs":[]},{"type":"error","name":"invalid_entranceFees","inputs":[]},{"type":"error","name":"invalid_predectionFees","inputs":[]},{"type":"error","name":"noDouble_register","inputs":[]},{"type":"error","name":"notEligible","inputs":[]},{"type":"error","name":"predection_closed","inputs":[]}],"bytecode":{"object":"0x608060405234801561001057600080fd5b50604051610d3a380380610d3a83398101604081905261002f9161006a565b60018054336001600160a01b031991821617909155600293909355600591909155600480549092166001600160a01b039091161790556100b0565b60008060006060848603121561007f57600080fd5b83516020850151604086015191945092506001600160a01b03811681146100a557600080fd5b809150509250925092565b610c7b806100bf6000396000f3fe6080604052600436106100a75760003560e01c80635580aaa3116100645780635580aaa3146101555780636120326514610175578063b0280baf14610195578063b06838c6146101aa578063c51baec4146101bf578063f71d96cb146101fc57600080fd5b806309739995146100ac5780631aa3a008146100e95780632920f970146100f35780633ccfd60b14610117578063443e489c1461012c5780634ca971661461013f575b600080fd5b3480156100b857600080fd5b506004546100cc906001600160a01b031681565b6040516001600160a01b0390911681526020015b60405180910390f35b6100f161021c565b005b3480156100ff57600080fd5b5061010960025481565b6040519081526020016100e0565b34801561012357600080fd5b506100f16102ce565b6100f161013a366004610a3c565b610636565b34801561014b57600080fd5b5061010960055481565b34801561016157600080fd5b506100f1610170366004610a70565b610761565b34801561018157600080fd5b506001546100cc906001600160a01b031681565b3480156101a157600080fd5b506100f1610849565b3480156101b657600080fd5b506100f1610924565b3480156101cb57600080fd5b506101ef6101da366004610a70565b60006020819052908152604090205460ff1681565b6040516100e09190610ad4565b34801561020857600080fd5b506100cc610217366004610ae7565b610a12565b600254340361023e5760405163d3b3ef4f60e01b815260040160405180910390fd5b61024e6138406366be5e40610b16565b42111561026e57604051634f90128b60e01b815260040160405180910390fd5b60013360009081526020819052604090205460ff16600381111561029457610294610aa0565b146102b257604051631b4519b360e11b815260040160405180910390fd5b336000908152602081905260409020805460ff19166001179055565b600480546040516371d4c25560e01b815233928101929092526001600160a01b0316906371d4c25590602401602060405180830381865afa158015610317573d6000803e3d6000fd5b505050506040513d601f19601f8201168201806040525081019061033b9190610b2f565b610358576040516345f225ff60e11b815260040160405180910390fd5b6004805460405163e085c53960e01b815233928101929092526000916001600160a01b039091169063e085c53990602401602060405180830381865afa1580156103a6573d6000803e3d6000fd5b505050506040513d601f19601f820116820180604052508101906103ca9190610b51565b90506000196000805b6003548110156104bf57600454600380546000926001600160a01b03169163e085c539918590811061040757610407610b74565b60009182526020909120015460405160e083901b6001600160e01b03191681526001600160a01b039091166004820152602401602060405180830381865afa158015610457573d6000803e3d6000fd5b505050506040513d601f19601f8201168201806040525081019061047b9190610b51565b90508060000b8460000b131561048f578093505b60008160000b13156104ac576104a9600082900b84610b8a565b92505b50806104b781610bb2565b9150506103d3565b5060008260000b1380156104d7575060008360000b13155b156104f45760405162192ffb60e61b815260040160405180910390fd5b60ff831681600084810b8113610530576002546003548391906105179086610bcb565b6105219190610bcb565b61052b9190610be2565b610534565b6002545b9050801561062e5760048054604051632894357360e11b815233928101929092526001600160a01b0316906351286ae690602401600060405180830381600087803b15801561058257600080fd5b505af1158015610596573d6000803e3d6000fd5b50506040516000925033915083908381818185875af1925050503d80600081146105dc576040519150601f19603f3d011682016040523d82523d6000602084013e6105e1565b606091505b505090508061062c5760405162461bcd60e51b81526020600482015260126024820152714661696c656420546f20576974686472617760701b60448201526064015b60405180910390fd5b505b505050505050565b6005543414610658576040516307c7210560e31b815260040160405180910390fd5b62010b306106668382610bcb565b610674906366be5e40610c04565b61067e9190610b16565b421061069d57604051630639b1bf60e11b815260040160405180910390fd5b6004805460405163509c386f60e11b81523392810192909252602482018490526001600160a01b03169063a13870de9060440160006040518083038186803b1580156106e857600080fd5b505afa1580156106fc573d6000803e3d6000fd5b505060048054604051630f7dec0360e31b81526001600160a01b039091169350637bef601892506107339133918791879101610c17565b600060405180830381600087803b15801561074d57600080fd5b505af115801561062e573d6000803e3d6000fd5b6001546001600160a01b0316331461078c5760405163d36ff48f60e01b815260040160405180910390fd5b600354601e116107af576040516319b9bc0160e01b815260040160405180910390fd5b60016001600160a01b03821660009081526020819052604090205460ff1660038111156107de576107de610aa0565b03610846576001600160a01b0381166000818152602081905260408120805460ff191660021790556003805460018101825591527fc2575a0e9e593c00f959f8c92f12db2869c3395a3b0502d05e2516446f71f85b0180546001600160a01b03191690911790555b50565b6001546001600160a01b031633146108745760405163d36ff48f60e01b815260040160405180910390fd5b60025460035460009161088691610bcb565b6108909047610b16565b604051909150600090339083908381818185875af1925050503d80600081146108d5576040519150601f19603f3d011682016040523d82523d6000602084013e6108da565b606091505b50509050806109205760405162461bcd60e51b81526020600482015260126024820152714661696c656420546f20576974686472617760701b6044820152606401610623565b5050565b60013360009081526020819052604090205460ff16600381111561094a5761094a610aa0565b036109fa5760025460405160009133918381818185875af1925050503d8060008114610992576040519150601f19603f3d011682016040523d82523d6000602084013e610997565b606091505b50509050806109dd5760405162461bcd60e51b81526020600482015260126024820152714661696c656420746f20576974686472617760701b6044820152606401610623565b50336000908152602081905260409020805460ff19166003179055565b60405162192ffb60e61b815260040160405180910390fd5b60038181548110610a2257600080fd5b6000918252602090912001546001600160a01b0316905081565b60008060408385031215610a4f57600080fd5b82359150602083013560048110610a6557600080fd5b809150509250929050565b600060208284031215610a8257600080fd5b81356001600160a01b0381168114610a9957600080fd5b9392505050565b634e487b7160e01b600052602160045260246000fd5b6004811061084657634e487b7160e01b600052602160045260246000fd5b60208101610ae183610ab6565b91905290565b600060208284031215610af957600080fd5b5035919050565b634e487b7160e01b600052601160045260246000fd5b81810381811115610b2957610b29610b00565b92915050565b600060208284031215610b4157600080fd5b81518015158114610a9957600080fd5b600060208284031215610b6357600080fd5b81518060000b8114610a9957600080fd5b634e487b7160e01b600052603260045260246000fd5b8082018281126000831280158216821582161715610baa57610baa610b00565b505092915050565b600060018201610bc457610bc4610b00565b5060010190565b8082028115828204841417610b2957610b29610b00565b600082610bff57634e487b7160e01b600052601260045260246000fd5b500490565b80820180821115610b2957610b29610b00565b6001600160a01b03841681526020810183905260608101610c3783610ab6565b82604083015294935050505056fea2646970667358221220915edac2914c5e8495ae394a4fa034ae31d7064fbea010b0c23f33c2ad60d92a64736f6c63430008140033","linkReferences":{}},"methodIdentifiers":{"approvePlayer(address)":"5580aaa3","cancelRegistraion()":"b06838c6","entranceFees()":"2920f970","makePredection(uint256,uint8)":"443e489c","organizer()":"61203265","playerStatus(address)":"c51baec4","players(uint256)":"f71d96cb","predectionFee()":"4ca97166","register()":"1aa3a008","scoreBoard()":"09739995","withdraw()":"3ccfd60b","withdrawPredictionFees()":"b0280baf"},"id":3}