{"abi":[{"type":"constructor","inputs":[],"stateMutability":"nonpayable"},{"type":"function","name":"clearPredictionsCount","inputs":[{"name":"player","type":"address","internalType":"address"}],"outputs":[],"stateMutability":"nonpayable"},{"type":"function","name":"confirmPredictionPayment","inputs":[{"name":"player","type":"address","internalType":"address"},{"name":"matchNumber","type":"uint256","internalType":"uint256"}],"outputs":[],"stateMutability":"view"},{"type":"function","name":"getPlayerScore","inputs":[{"name":"player","type":"address","internalType":"address"}],"outputs":[{"name":"score","type":"int8","internalType":"int8"}],"stateMutability":"view"},{"type":"function","name":"isEligibleForReward","inputs":[{"name":"player","type":"address","internalType":"address"}],"outputs":[{"name":"","type":"bool","internalType":"bool"}],"stateMutability":"view"},{"type":"function","name":"setPrediction","inputs":[{"name":"player","type":"address","internalType":"address"},{"name":"MatchNumber","type":"uint256","internalType":"uint256"},{"name":"result","type":"uint8","internalType":"enum ScoreBoard.Result"}],"outputs":[],"stateMutability":"nonpayable"},{"type":"function","name":"setPredictor","inputs":[{"name":"_thePredictor","type":"address","internalType":"address"}],"outputs":[],"stateMutability":"nonpayable"},{"type":"function","name":"setResult","inputs":[{"name":"MatchNumber","type":"uint256","internalType":"uint256"},{"name":"result","type":"uint8","internalType":"enum ScoreBoard.Result"}],"outputs":[],"stateMutability":"nonpayable"},{"type":"error","name":"ScoreBoard_UnauthorizedAccess","inputs":[]}],"bytecode":{"object":"0x608060405234801561001057600080fd5b50600080546001600160a01b03191633179055610800806100326000396000f3fe608060405234801561001057600080fd5b506004361061007d5760003560e01c806371d4c2551161005b57806371d4c255146100bd5780637bef6018146100e5578063a13870de146100f8578063e085c5391461010b57600080fd5b806351286ae61461008257806356150a361461009757806366b2edfc146100aa575b600080fd5b610095610090366004610642565b610131565b005b6100956100a5366004610673565b610181565b6100956100b8366004610642565b6101f2565b6100d06100cb366004610642565b61023f565b60405190151581526020015b60405180910390f35b6100956100f336600461069f565b6102bc565b6100956101063660046106db565b610462565b61011e610119366004610642565b6104b9565b60405160009190910b81526020016100dc565b6001546001600160a01b0316331461015c576040516304d98de560e41b815260040160405180910390fd5b6001600160a01b0316600090815260026020819052604090912001805460ff19169055565b6000546001600160a01b031633146101ac576040516304d98de560e41b815260040160405180910390fd5b80600383600981106101c0576101c0610705565b602091828204019190066101000a81548160ff021916908360038111156101e9576101e961071b565b02179055505050565b6000546001600160a01b0316331461021d576040516304d98de560e41b815260040160405180910390fd5b600180546001600160a01b0319166001600160a01b0392909216919091179055565b600080600361025060016009610747565b6009811061026057610260610705565b602081049091015460ff601f9092166101000a90041660038111156102875761028761071b565b141580156102b657506001600160a01b03821660009081526002602081905260409091200154600160ff909116115b92915050565b61fd206102cd6366be5e408261075a565b6102d79190610747565b4211610337576001600160a01b03831660009081526002602052604090208190836009811061030857610308610705565b602091828204019190066101000a81548160ff021916908360038111156103315761033161071b565b02179055505b6001600160a01b0383166000908152600260208190526040822001805460ff191690555b600981101561045c576001600160a01b0384166000908152600260205260408120826009811061038d5761038d610705565b602081049091015460ff601f9092166101000a90041660038111156103b4576103b461071b565b1415801561040057506001600160a01b038416600090815260026020526040902060010181600981106103e9576103e9610705565b602081049091015460ff601f9092166101000a9004165b1561044a576001600160a01b038416600090815260026020819052604082200180549091906104319060ff16610771565b91906101000a81548160ff021916908360ff1602179055505b8061045481610790565b91505061035b565b50505050565b6001546001600160a01b0316331461048d576040516304d98de560e41b815260040160405180910390fd5b6001600160a01b0382166000908152600260205260409020600101816009811061045c5761045c610705565b6000805b6009811015610620576001600160a01b038316600090815260026020526040902060010181600981106104f2576104f2610705565b602081049091015460ff601f9092166101000a900416801561056257506001600160a01b0383166000908152600260205260408120826009811061053857610538610705565b602081049091015460ff601f9092166101000a900416600381111561055f5761055f61071b565b14155b1561060e576003816009811061057a5761057a610705565b602081049091015460ff601f9092166101000a90041660038111156105a1576105a161071b565b6001600160a01b038416600090815260026020526040902082600981106105ca576105ca610705565b602081049091015460ff601f9092166101000a90041660038111156105f1576105f161071b565b146105fe57600019610601565b60025b61060b90836107a9565b91505b8061061881610790565b9150506104bd565b50919050565b80356001600160a01b038116811461063d57600080fd5b919050565b60006020828403121561065457600080fd5b61065d82610626565b9392505050565b80356004811061063d57600080fd5b6000806040838503121561068657600080fd5b8235915061069660208401610664565b90509250929050565b6000806000606084860312156106b457600080fd5b6106bd84610626565b9250602084013591506106d260408501610664565b90509250925092565b600080604083850312156106ee57600080fd5b6106f783610626565b946020939093013593505050565b634e487b7160e01b600052603260045260246000fd5b634e487b7160e01b600052602160045260246000fd5b634e487b7160e01b600052601160045260246000fd5b818103818111156102b6576102b6610731565b80820281158282048414176102b6576102b6610731565b600060ff821660ff810361078757610787610731565b60010192915050565b6000600182016107a2576107a2610731565b5060010190565b600081810b9083900b01607f8113607f19821217156102b6576102b661073156fea26469706673582212201bda0b431833a4e67b3c4b57cf953d648f201282e98c533c25cdc4b6b08255d364736f6c63430008140033","linkReferences":{}},"methodIdentifiers":{"clearPredictionsCount(address)":"51286ae6","confirmPredictionPayment(address,uint256)":"a13870de","getPlayerScore(address)":"e085c539","isEligibleForReward(address)":"71d4c255","setPrediction(address,uint256,uint8)":"7bef6018","setPredictor(address)":"66b2edfc","setResult(uint256,uint8)":"56150a36"},"id":30}